:020000040800F2
:1000000058510020610200080D3A0008A33600088C
:10001000093A0008C9090008ED5400080000000072
:10002000000000000000000000000000A101000826
:100030006714000800000000FD010008454E00089C
:100040007B0200087B0200087B0200087B0200089C
:100050007B0200087B0200087B0200087B0200088C
:100060007B0200087B0200087B0200087B0200087C
:100070007B0200087B0200087B0200087B0200086C
:100080007B0200087B0200087B020008DD090008F3
:10009000CD0900087B0200087B0200087B020008F3
:1000A0007B0200087B0200087B0200087B0200083C
:1000B0007B0200087B0200087B0200087B0200082C
:1000C0007B0200087B0200087B0200087B0200081C
:1000D0007B0200087B0200087B0200089D54000898
:1000E0007B0200087B0200087B0200087B020008FC
:1000F0007B020008454F00087B0200087B020008D5
:100100007B0200087B0200087B0200087B020008DB
:100110007B0200087B020008254F0008354F0008CD
:100120007B0200087B0200087B0200087B020008BB
:100130007B0200087B0200087B020008FD09000822
:10014000ED0900087B0200087B0200087B02000822
:100150007B0200087B0200087B0200087B0200088B
:100160007B0200087B0200087B0200087B0200087B
:100170007B0200087B0200087B02000800000000F0
:100180007B0200087B020008DFF810D000F0DEFBE5
:10019000004800477D660008AFF3008058510020FA
:1001A0002C4B19680868B0E8F04F80F30988BFF35A
:1001B0006F8F4FF0000080F311887047000000003F
:1001C00008480068006880F308884FF0000080F35A
:1001D000148862B661B6BFF34F8FBFF36F8F00DF35
:1001E00000BF00BF08ED00E0DFF80C00016841F43B
:1001F00070010160704700BF88ED00E0EFF30980F7
:10020000BFF36F8F134B1A681EF0100F08BF20ED5D
:10021000108A20E9F04F106009B44FF0500080F3CD
:100220001188BFF34F8FBFF36F8F07F02FFE4FF092
:10023000000080F3118809BC19680868B0E8F04F25
:100240001EF0100F08BFB0EC108A80F30988BFF3CE
:100250006F8F70472C000020EFF30580704700007F
:100260000648804706480047FEE7FEE7FEE7FEE750
:10027000FEE7FEE7FEE7FEE7FEE7FEE7114F0008B8
:10028000890100082DE9F05F0546002092469B4653
:1002900088460646814640241BE02846414647469C
:1002A000224600F04CFA53465A46C01A914110D3E8
:1002B00011461846224600F033FA2D1A67EB010862
:1002C0004F4622460120002100F02AFA17EB0009D0
:1002D0004E41201EA4F10104DFDC484631462A4687
:1002E0004346BDE8F09F40EA01039B0703D009E0C5
:1002F00008C9121F08C0042AFAD203E011F8013B12
:1003000000F8013B521EF9D27047D2B201E000F86A
:10031000012B491EFBD270470022F6E710B51346A9
:100320000A4604461946FFF7F0FF204610BD2DE9A6
:10033000FE4F804681EA0300C00F0C46009021F07A
:10034000004123F00045B8EB0200A94105D2404628
:10035000214690461C460B46024623F000401043BF
:1003600047D0270DC7F30A00C3F30A510290401A81
:10037000019040286BDAC3F3130040F4801B00980F
:10038000924620B10023D2EB030A63EB0B0B0198DA
:100390005946C0F14002504600F0C2F906460D46EB
:1003A00050465946019A00F0DAF910EB0800614115
:1003B000002487EA115284EAE7731A4340D0009A76
:1003C00062B3019A012A4FEA075215DC001B61EB68
:1003D00002014FF0004202EA0752CDE90042001C40
:1003E00041F5801132462B4600F011FA03B0BDE80A
:1003F000F08F40462146F9E7001B61EB0201001C2B
:1004000041F5801300185B412018A2F5001747EB57
:10041000030140EAD570B6196D4111E06D084FEA4D
:10042000360645EAC0754FEA0752001B61EB020130
:10043000001C41F5801149084FEA30000019514174
:1004400032462B4603B0BDE8F04F00F0D1B900981A
:10045000012240000023D0EB020263EBE07300981E
:1004600021464FEAE074B8EB000061EB0401E9E7D4
:1004700083F000435BE781F0004158E72DE9FE4F30
:1004800081EA030404F0004421F0004100944FF09D
:10049000000B23F0004350EA01045ED052EA03044B
:1004A0005BD0C3F30A54C1F30A552C44A4F2F334CD
:1004B0000194A0FB0254C1F3130141F48011C3F372
:1004C000130343F4801301FB024400FB034E840A30
:1004D000970A44EA815447EA8357A4FB07680295C8
:1004E0008D0A05FB07854FEA932C04FB0C54270566
:1004F000029D4FEA065847EA1637B5EB08056EEB42
:10050000070C870E920E47EA811742EA8312A7FB77
:100510000201B6EB0B0164EB00042B0D43EA0C3334
:100520005E1844EB1C50DA465146E7FB0201C5F366
:1005300013044FEA0B3343EA14534FEA0432019C8D
:1005400043EA0603A4F10C040294009CCDE900B434
:1005500000F05DF903B0BDE8F08F00200146F9E737
:100560002DE9F04D81EA030404F0004B21F0004531
:1005700014464FF0000A23F0004150EA050220D053
:1005800054EA01021DD0C5F30A570246C5F313030E
:10059000C1F31300C1F30A5640F4801543F48013ED
:1005A000A7EB0608101BD64608F2FD3873EB0500D2
:1005B00002D308F1010801E092185B41B8F1000F85
:1005C00003DA00200146BDE8F08D00204FF48011D1
:1005D000064684460EE0171B73EB050705D3121B76
:1005E00063EB050306434CEA010C49084FEA30006F
:1005F00092185B4150EA0107EDD152EA030012D094
:1006000082EA040083EA0501084305D0101BAB41D0
:1006100006D20122002306E000224FF0004302E050
:100620006FF0010253101AEB06004CEB085110EB6F
:100630000A0041EB0B01BDE8F04D00F0D9B80EB552
:10064000C10F80EAE0700844CA07002140F233433A
:100650008DE80E000A460B4600F0D9F803B000BD45
:1006600000F0004230F000400AD0C10D01F5607189
:10067000C0F3160042EA0151C20840071143704717
:10068000002001467047000030B5041E71F10004DF
:1006900004DB4FF00044404264EB0101141E73F18F
:1006A000000405DB1C464FF00043524263EB040399
:1006B0008B4208BF824230BD30B5041E71F1000488
:1006C00004DB4FF00044404264EB0101141E73F15F
:1006D000000405DB1C464FF00043524263EB040369
:1006E000994208BF904230BD01F0004330B421F080
:1006F000004150EA010206D00A0DA2F56072C1F372
:100700001301002A02DC30BC00207047440F44EA89
:10071000C104C100E01830BC00EBC25000F031B899
:10072000202A04DB203A00FA02F1002070479140B1
:10073000C2F1200320FA03F3194390407047202AA6
:1007400004DB203A21FA02F00021704721FA02F37B
:10075000D040C2F120029140084319467047202A38
:1007600006DBCB17203A41FA02F043EAE07306E0D9
:1007700041FA02F3D040C2F12002914008431946E9
:1007800070470029A8BF7047401C490008BF20F0EF
:100790000100704710B4B0FA80FC00FA0CF050EA87
:1007A000010404BF10BC704749B1CCF1200421FA08
:1007B00004F411FA0CF118BF012121430843A3EB03
:1007C0000C01CB1D4FEA00614FEA102042BF002010
:1007D00010BC704700EBC35010440029A4BF10BCEC
:1007E0007047401C490008BF20F0010010BC704752
:1007F00010B5141E73F1000408DA401C41F1000129
:1008000092185B411A4301D120F0010010BD2DE97F
:10081000F04D92469B4611B1B1FA81F202E0B0FA76
:1008200080F220329046FFF77BFF04460F4640EAF5
:100830000A0041EA0B0153465A46084313D01146B9
:1008400053EA010019D0C8F140025046FFF777FF84
:1008500005460E46504659464246FFF761FF08439B
:1008600005D0012004E020463946BDE8F08D002087
:10087000054346EAE0762C4337430A986305E40AC9
:10088000A0EB08000022FD0A44EA47540A3002D5D2
:1008900000200146E9E7010510196941DDE9084535
:1008A00000196941BDE8F04DA2E72DE9F04D0023A4
:1008B0001A461B1A8A4103DB00200146BDE8F08D71
:1008C000C1F30A52C1F3130141F480154FF0000B3C
:1008D000D10702D100186D41521E0027044640F294
:1008E000FF11384601EB620A3E4680460246002070
:1008F0004FF48011FFF723FFC2197141BB1846EB7B
:100900000100B4EB030C75EB000C04D3E41A65EBA7
:10091000000517460E46241908F101006D41804676
:100920003428E3DDF91946EB0600091BA84103D280
:100930004FF0FF32134601E0002213461BEB070085
:1009400046EB0A51BDE8F04DFFF752BF064C074D8C
:1009500006E0E06840F0010394E80700984710348F
:10096000AC42F6D3FFF714FCD08E0008F08E0008DE
:100970000EB540F2334102910021CDE900110A4643
:100980000B46FFF744FF03B000BD70B5C1F30A5238
:1009900001F000450024C1F3130140F2FF3341F49C
:1009A00080119A4201DA002070BD40F233439A422E
:1009B000A2F2334203DC5242FFF7C1FE00E0904056
:1009C0002C43F1D0404270BD00BFFEE710B5024895
:1009D00000F05EFF10BD00003001002010B502489D
:1009E00000F056FF10BD00003001002010B5024895
:1009F00000F04EFF10BD00005801002010B5024865
:100A000000F046FF10BD00005801002070470000B4
:100A100000B52DED048B85B0BD4890ED001BB0EE08
:100A2000410AF0EE610A68469FEDBA2B9FEDBB1BB1
:100A300006F052FD9FEDBB0B53EC102B9DED000B10
:100A400051EC100BFFF714FD41EC180BB04890ED82
:100A5000021BB0EE410AF0EE610A68469FEDB32B2F
:100A60009FEDAE1B06F0E8FD9FEDB20B53EC102B93
:100A70009DED000B51EC100BFFF7FAFC41EC190B4C
:100A8000694602A8B0EE491AF0EE691AB0EE480ABB
:100A9000F0EE680A02F008FE9DED020B53EC102BFD
:100AA0009FEDA60B51EC100BFFF7E8FCA54A03C223
:100AB0009DED000B53EC102B9FEDA00B51EC100B98
:100AC000FFF7DCFC9F4AC2E90201914890ED041B4C
:100AD000B0EE410AF0EE610A68469FED8E2B9FED65
:100AE0008F1B06F0F9FC9FED8F0B53EC102B9DED47
:100AF000000B51EC100BFFF7BBFC41EC180B8448CA
:100B000090ED061BB0EE410AF0EE610A68469FEDDB
:100B1000872B9FED821B06F08FFD9FED860B53EC1C
:100B2000102B9DED000B51EC100BFFF7A1FC41ECDD
:100B3000190B02A96846B0EE491AF0EE691AB0EE38
:100B4000480AF0EE680A02F0AFFD9DED000B51EC93
:100B5000100B81F0004141EC190B9FED780B53EC29
:100B6000102BFFF78BFC774AC2E904019DED020BC5
:100B700051EC100B81F0004141EC190B9FED6F0B14
:100B800053EC102BFFF77AFC6E4AC2E9060160486D
:100B900090ED0A1BB0EE410AF0EE610A68469FED47
:100BA000632B9FED5E1B06F047FD9FED620B53EC40
:100BB000102B9DED000B51EC100BFFF759FC41EC95
:100BC000180B534890ED081BB0EE410AF0EE610A95
:100BD00068469FED502B9FED511B06F07DFC9FED6D
:100BE000510B53EC102B9DED000B51EC100BFFF74C
:100BF0003FFC41EC190B02A96846B0EE481AF0EE32
:100C0000681AB0EE490AF0EE690A02F04DFD9DED5A
:100C1000020B51EC100B81F0004141EC190B9FEDE0
:100C2000470B53EC102BFFF729FC464AC2E9080199
:100C30009DED000B51EC100B81F0004141EC190BC4
:100C40009FED3E0B53EC102BFFF718FC3D4AC2E919
:100C50000A012F4890ED0E1BB0EE410AF0EE610A3A
:100C600068469FED322B9FED2D1B06F0E5FC9FEDB6
:100C7000310B53EC102B9DED000B51EC100BFFF7DB
:100C8000F7FB41EC180B224890ED0C1BB0EE410A2B
:100C9000F0EE610A68469FED1F2B9FED201B06F0CA
:100CA0001BFC9FED200B53EC102B9DED000B51EC2A
:100CB000100BFFF7DDFB41EC190B02A96846B0EE03
:100CC000481AF0EE681AB0EE490AF0EE690A02F02E
:100CD000EBFC9DED000B53EC102B9FED180B51EC32
:100CE000100BFFF7CBFB174AC2E90C019DED020B7D
:100CF00053EC102B9FED110B51EC100BFFF7BEFBCB
:100D0000104AC2E90E0105B0BDEC048B00BD000025
:100D1000D84C00200000000000005E4000000000F1
:100D2000000000400000000000004E4000000000F5
:100D3000000044400000000000006940399D52A2BC
:100D400046DF913F184D00200FB430B593B00446F4
:100D50000D46012C04D0022C06D0032C0CD107E048
:100D6000FC201449C8710BE0FD201249C87107E04E
:100D7000FE201049C87103E013B030BC5DF814FBCD
:100D800000BF202218A909A8FFF7ADFA9DF880003E
:100D90008DF844002198129024220AA96846FFF792
:100DA000A2FA2A4608210348099B00F045FB00BF30
:100DB000E2E70000AC0000200FB42DED060B2DE99A
:100DC000F0432DED068B93B0B0EE40AAB0EE608AF2
:100DD000F0EE418AB0EE619AF0EE429A81469FEDC4
:100DE0006D0AB4EEC0AAF1EE10FA02D89FED690ABE
:100DF0000BE09FED690AB4EEC0AAF1EE10FA02DB37
:100E00009FED650A01E0B0EE4A0AB0EE40AA9FED00
:100E1000630AB4EEC08AF1EE10FA02D89FED5F0AC1
:100E20000BE09FED5F0AB4EEC08AF1EE10FA02DB30
:100E30009FED5B0A01E0B0EE480AB0EE408AF5EEA5
:100E4000C08AF1EE10FA02D89FED560A0BE09FED32
:100E5000560AF4EEC08AF1EE10FA02DB9FED520A58
:100E600001E0B0EE680AF0EE408AB5EEC09AF1EE0D
:100E700010FA02D89FED4B0A0BE0B1EE040AB4EE73
:100E8000C09AF1EE10FA02DBB1EE040A01E0B0EE16
:100E9000490AB0EE409ABBEE020AF4EEC09AF1EEB7
:100EA00010FA02D8BBEE020A0BE0B3EE020AF4EE2F
:100EB000C09AF1EE10FA02DBB3EE020A01E0B0EEE6
:100EC000690AF0EE409A10209FED331ADFED310AE7
:100ED000B0EE4A0A05F0B8FB04460C209FED301A2C
:100EE000DFED2E0AB0EE480A05F0AEFB05460C20F9
:100EF0009FED2D1ADFED2B0AB0EE680A05F0A4FB7A
:100F000006460C20B1EE041ADFED260AB0EE490ABF
:100F100005F09AFB07460C20B3EE021AFBEE020A1C
:100F2000B0EE690A05F090FB804620121F49087058
:100F30004C70C5F3071088702807000E40EA262081
:100F4000C8700E71C7F3071048713807000E40EAE9
:100F50002820887181F80780202227A909A8FFF797
:100F6000C2F99DF8BC008DF84400309812902422FC
:100F70000AA96846FFF7B7F94A4608210B48099BBA
:100F800000F05AFA13B0BDEC068BBDE8F0035DF833
:100F90002CFB00000000BFC20000BF42000034C2B2
:100FA00000003442000000000000FA43B4000020BA
:100FB00000B593B000201AE0FF21FE4A02EB0012B8
:100FC00011709FEDFD0AFB4901EB001181ED010A53
:100FD0009FEDF90AF74901EB001181ED020A9FED3F
:100FE000F60AF44901EB001181ED030A401C0828C0
:100FF000E2DB00BF0020F14908702022F04909A877
:10100000FFF771F9EE4890F820008DF84400EC48A5
:10101000406A129020220BA96846FFF764F901216B
:101020000320DDE90923FFF78FFE0A2001F04EF8C7
:101030002022E34909A8FFF756F9E14890F820007B
:101040008DF84400DE48406A129020220BA96846C1
:10105000FFF749F901210846DDE90923FFF774FE8E
:101060000A2001F033F8D3480078012805D1D3488D
:10107000007840F00100D14908702022D04909A829
:10108000FFF731F9CE4890F820008DF84400CC48A5
:10109000406A129020220BA96846FFF724F902212A
:1010A0000320DDE90923FFF74FFE0A2001F00EF8C7
:1010B0002022C34909A8FFF716F9C14890F820007B
:1010C0008DF84400BE48406A129020220BA9684661
:1010D000FFF709F902210120DDE90923FFF734FEBA
:1010E0000A2000F0F3FFB348007C022805D1B34882
:1010F000007840F00200B14908702022B04909A8E8
:10110000FFF7F1F8AE4890F820008DF84400AC48A5
:10111000406A129020220BA96846FFF7E4F80321E9
:101120000846DDE90923FFF70FFE0A2000F0CEFF95
:101130002022A34909A8FFF7D6F8A14890F820007B
:101140008DF844009E48406A129020220BA9684600
:10115000FFF7C9F803210120DDE90923FFF7F4FDBA
:101160000A2000F0B3FF934890F82000032805D12F
:101170009248007840F0040090490870202290497D
:1011800009A8FFF7B0F88E4890F820008DF84400C9
:101190008B48406A129020220BA96846FFF7A3F8FB
:1011A00004210320DDE90923FFF7CEFD0A2000F02A
:1011B0008DFF2022824909A8FFF795F8804890F812
:1011C00020008DF844007E48406A129020220BA92E
:1011D0006846FFF788F804210120DDE90923FFF7BD
:1011E000B3FD0A2000F072FF724890F83000042826
:1011F00005D17248007840F008007049087020223C
:10120000704909A8FFF76FF86E4890F820008DF834
:1012100044006C48406A129020220BA96846FFF7F0
:1012200062F805210320DDE90923FFF78DFD0A207F
:1012300000F04CFF2022634909A8FFF754F86148E9
:1012400090F820008DF844005E48406A12902022F9
:101250000BA96846FFF747F805210120DDE90923BE
:10126000FFF772FD0A2000F031FF524890F840006D
:10127000052805D15148007840F010004F4908700A
:101280002022504909A8FFF72EF84E4890F8200078
:101290008DF844004B48406A129020220BA9684602
:1012A000FFF721F806210320DDE90923FFF74CFDB4
:1012B0000A2000F00BFF2022424909A8FFF713F88B
:1012C000404890F820008DF844003E48406A129053
:1012D00020220BA96846FFF706F806210120DDE968
:1012E0000923FFF731FD0A2000F0F0FE314890F8A5
:1012F0005000062805D13148007840F020002F49E1
:10130000087020222F4909A8FEF7EDFF2D4890F81C
:1013100020008DF844002B48406A129020220BA92F
:101320006846FEF7E0FF07210320DDE90923FFF708
:101330000BFD0A2000F0CAFE2022224909A8FEF770
:10134000D2FF204890F820008DF844001D48406AE4
:10135000129020220BA96846FEF7C5FF0721012045
:10136000DDE90923FFF7F0FC0A2000F0AFFE114889
:1013700090F86000072805D11048007840F0400040
:101380000E49087020220F4909A8FEF7ACFF0D484E
:1013900090F820008DF844000A48406A12902022FC
:1013A0000BA96846FEF79FFF08210320DDE909230A
:1013B0000AE00000C44B002000000000C400002030
:1013C0003001002058010020FFF7BEFC0A2000F089
:1013D0007DFE2022154909A8FEF785FF134890F8E5
:1013E00020008DF844001148406A129020220BA979
:1013F0006846FEF778FF08210120DDE90923FFF7A1
:10140000A3FC0A2000F062FE094890F8700008284A
:1014100005D10848007840F080000649087005486A
:101420000078FF287FF4E6AD13B000BD580100201E
:10143000C44B0020C40000200FB470B588B004462F
:101440000D4616465CB155B10296002004900590F9
:10145000069501AB224602A90FA800F01DF808B0BE
:1014600070BC5DF814FB704772B600BFFEE710B5A4
:10147000024692F82030012B01D0022B06D11068D1
:101480004069084314686061002010BD506A40F450
:10149000802050620120F8E7F0B504460D461E4654
:1014A00094F8207020688368A86800B900E000BF45
:1014B000012F01D0022F7CD103F0806030B903F0FE
:1014C000006018B903F08050002873D0C3F30161A5
:1014D000022905D9606A40F4000060620120F0BD75
:1014E000012088403060A86860B9B5F800C0E8689D
:1014F00040EA4C5C206800F5C07000EB0110C0F8B9
:1015000000C00FE0D5E901C040EACC00D5F80CC01E
:1015100040EA0C00D4F800C00CF5C07C0CEB011CB8
:10152000CCF80000D5F810C0206800F5C07000EBC2
:101530000110C0F804C0287D01280ED1206800F5F4
:10154000C07000EB0110406840F4807C206800F51A
:10155000C07000EB0110C0F804C0D079000692F80A
:1015600006C040EA0C4092F805C040EA0C2C107905
:101570004CEA000C206800F5C07000EB0110C0F8C8
:101580000CC0D078000692F802C040EA0C4092F8F5
:1015900001C040EA0C2092F800C040EA0C00D4F8E8
:1015A00000C00CF5C07C0CEB011CCCF808002068D6
:1015B00001E016E00FE000F5C07000EB01100068DC
:1015C00040F0010C206800F5C07000EB0110C0F87D
:1015D00000C0002083E7606A40F4001060620120D0
:1015E0007DE7606A40F480206062012077E70000B8
:1015F000F0B504460A46216894F82050012D01D028
:10160000022D7ED1424901F50071086840F00100C9
:101610000860086820F47C5008600868566A40EA50
:1016200006200860107D00F01F06012000FA06F376
:10163000C8699843C861A1F50071D069C8B9D1F8EB
:101640000C029843C1F80C02908880B2968940EA57
:10165000064601F51070576940F83760108880B26F
:10166000168940EA064601F51070576900EBC7007D
:101670004660D069012819D1D1F80C021843C1F88D
:101680000C02908880B2168840EA064601F5107078
:10169000576940F83760908980B2168940EA06465B
:1016A00001F51070576900EBC7004660906928B9D2
:1016B000D1F804029843C1F8040204E0D1F804020E
:1016C0001843C1F80402106928B9D1F814029843EC
:1016D000C1F8140204E0D1F814021843C1F814024E
:1016E000106A012804D1D1F81C021843C1F81C0269
:1016F000D1F8000220F00100C1F800020020F0BD86
:10170000FFE7606A40F4802060620120F7E7000094
:1017100000640040704770B5044694F82050012DD5
:1017200001D0022D7DD151B92068C06800F00300BE
:1017300080B9606A40F400106062012070BD2068CA
:10174000006900F0030028B9606A40F4001060628C
:101750000120F3E7206800F5D87000EB0110006865
:1017600000F004009060906840B9206800F5D870DF
:1017700000EB01100068400D106007E0206800F5E4
:10178000D87000EB01100068C0085060206800F5B8
:10179000D87000EB0110006800F00200D0602068F3
:1017A00000F5D87000EB0110406800F00F001061E8
:1017B000206800F5D87000EB0110406800F47F400D
:1017C000000A9061206800F5D87000EB01104068B5
:1017D000000C5061206800F5D87000EB01108068A3
:1017E0001870206800F5D87000EB0110806800F4D4
:1017F0007F40000A5870206800F5D87000EB011097
:10180000806800F47F00000C9870206800F5D870A4
:1018100000EB01108068000ED870206800F5D870C9
:1018200000E02FE000EB0110C0681871206800F59F
:10183000D87000EB0110C06800F47F40000A5871B6
:10184000206800F5D87000EB0110C06800F47F003C
:10185000000C9871206800F5D87000EB0110C0688A
:10186000000ED87131B92068C06840F020002668A9
:10187000F06005E02068006940F0200026683061D3
:1018800000205BE7606A40F480206062012055E739
:101890002DE9F05F04460025206846692068D0F8ED
:1018A0000490206887682068D0F80CA02068D0F8E1
:1018B00010B02068D0F8188006F00100002855D03C
:1018C00007F00100C0B101202168886007F0020024
:1018D00018B1204600F089FB0EE007F0040010B1BB
:1018E00045F4006508E007F0080010B145F48055A4
:1018F00002E0204600F078FB07F48070C8B14FF496
:1019000080702168886007F4007018B1204600F0EC
:101910006EFB0EE007F4806010B145F4005508E05E
:1019200007F4006010B145F4804502E0204600F065
:101930005DFB07F48030C8B14FF4803021688860C7
:1019400007F4003018B1204600F053FB0EE007F416
:10195000802010B145F4004508E007F4002010B1E4
:1019600045F4803502E0204600F042FB06F0080016
:1019700038B10AF0100020B145F40075102021683C
:10198000C86006F0040040B10AF0080028B1082041
:101990002168C860204600F01DFA06F0020038B148
:1019A0002068C06800F0030010B1204600F014FA6F
:1019B00006F0400038B10BF0100020B145F480650E
:1019C00010202168086106F0200040B10BF00800EB
:1019D00028B1082021680861204600F0D3FA06F0FB
:1019E000100038B12068006900F0030010B12046F3
:1019F00000F0C9FA06F4003040B109F0100028B137
:101A0000102021684860204600F0BEFA06F48030BD
:101A100040B109F0080028B108202168486020463C
:101A200000F0E8FA06F4004088B309F0040078B347
:101A300006F4807020B108F0010008B145F00105FE
:101A400006F4007020B108F0020008B145F002056C
:101A500006F4806020B108F0040008B145F00405E8
:101A600006F40060A0B108F0700088B108F07000C2
:101A7000402817D006DC10280BD020280CD03028A6
:101A800019D10CE0502810D0602814D110E01DE0CE
:101A900019E045F008050FE045F010050CE045F0B1
:101AA000200509E045F0400506E045F0800503E02B
:101AB00045F4807500E000BF00BF2068806920F019
:101AC0007000216888610420216848602DB1606A37
:101AD000284360622046FFF71DFEBDE8F09F70B509
:101AE00004460CB9012070BD94F8200010B92046BE
:101AF00000F0B0F82068006840F00100216808603C
:101B000000F0F2FB05460DE000F0EEFB401B0A285A
:101B100008D9606A40F400306062052084F8200033
:101B20000120E0E72068406800F001000028EBD0C9
:101B30002068006820F002002168086000F0D4FBF3
:101B400005460DE000F0D0FB401B0A2808D9606A6A
:101B500040F400306062052084F820000120C2E7D4
:101B60002068406800F002000028EBD1207E0128A8
:101B700006D12068006840F080002168086005E018
:101B80002068006820F0800021680860607E0128DD
:101B900006D12068006840F040002168086005E038
:101BA0002068006820F0400021680860A07E0128BD
:101BB00006D12068006840F020002168086005E038
:101BC0002068006820F0200021680860E07E01287D
:101BD00006D12068006820F010002168086005E048
:101BE0002068006840F0100021680860207F01280C
:101BF00006D12068006840F008002168086005E010
:101C00002068006820F0080021680860607F0128D3
:101C100006D12068006840F004002168086005E0F3
:101C20002068006820F0040021680860D4E90201FF
:101C3000084321690843616908436168491E0843F4
:101C40002168C86100206062012084F82000002023
:101C500049E7000010B586B00446142101A8FEF73C
:101C60005BFB56492068884249D155480068401CB2
:101C7000534908600846006801280FD100BF0020C2
:101C800000905048006840F000704E4908600846D7
:101C9000006800F00070009000BF00BF00BF00208F
:101CA000009048481038006840F008004549103955
:101CB00008600846006800F00800009000BF00BF00
:101CC0000320019002200290002003900220049043
:101CD0000920059001A93C4800F00CFA00220521DA
:101CE000132000F0C5FB132000F0B2FB00220521F9
:101CF000142000F0BDFB142000F0AAFB5CE0334987
:101D00002068884258D100BF002000902D4800680C
:101D100040F080602B4908600846006800F0806051
:101D2000009000BF00BF26480068401C244908609E
:101D30000846006801280FD100BF0020009021480C
:101D4000006840F000701F4908600846006800F015
:101D50000070009000BF00BF00BF00200090194835
:101D60001038006840F00200164910390860084633
:101D7000006800F00200009000BF00BF60200190EA
:101D80000220029000200390032004900920059077
:101D900001A90F4800F0AEF9002205213F2000F014
:101DA00067FB3F2000F054FB00220521402000F09B
:101DB0005FFB402000F04CFB06B010BD006400400B
:101DC0001800002040380240000C0240006800402B
:101DD000000402407047000030B589B004466248F4
:101DE00084425ED16B4602AA00212046FFF793FC95
:101DF0009DF8000008284FDC9DF80010481E5B4A43
:101E000002EB001001709DF801009DF8021040EAFD
:101E100001259DF802109DF8012041EA02201021C1
:101E2000DFED530A9FED530A05F0FAFC9DF8000020
:101E3000401E4E4901EB001080ED010A9DF8031091
:101E400009019DF8042041EA22100C21DFED4A0A25
:101E50009FED4A0A05F0E4FC9DF80000401E43494E
:101E600001EB001080ED020A9DF805109DF804209A
:101E700002F00F0241EA02200C21F3EE020ABBEE4F
:101E8000020A05F0CDFC9DF80000401E374901EB29
:101E9000001080ED030A00BF02212046FFF7E7FA99
:101EA00060E0374884425DD16B4602AA002120469B
:101EB000FFF731FC9DF8000008284FDC9DF800106A
:101EC000481E2A4A02EB001001709DF801009DF89F
:101ED000021040EA01259DF802109DF8012041EA18
:101EE00002201021DFED220A9FED220A05F098FC66
:101EF0009DF80000401E1D4901EB001080ED010A15
:101F00009DF8031009019DF8042041EA22100C21DC
:101F1000DFED190A9FED190A05F082FC9DF800001B
:101F2000401E124901EB001080ED020A9DF80510D9
:101F30009DF8042002F00F0241EA02200C21F3EE8A
:101F4000020ABBEE020A05F06BFC9DF80000401E81
:101F5000064901EB001080ED030A00BF0221204674
:101F6000FFF785FA09B030BD30010020C44B0020D6
:101F70000000BF420000BFC200003442000034C273
:101F80005801002070477047704770B5044694F8B8
:101F90002000012822D1022084F820002068006857
:101FA00020F001002168086000F09EF905460DE070
:101FB00000F09AF9401B0A2808D9606A40F4003002
:101FC0006062052084F82000012070BD2068406810
:101FD00000F001000028EBD16062F6E7606A40F48F
:101FE000002060620120F0E770477047704770473B
:101FF00070477047704770B50446A56D00F074F9DE
:10200000064694F83500022808D08020606500BF9D
:10201000002084F8340000BF012070BD20680068F3
:1020200020F01600216808602068406920F08000D8
:1020300021684861206C08B9A06C28B1206800684C
:1020400020F00800216808602068006820F0010086
:102050002168086010E000F047F9801B05280BD9C3
:1020600020206065032084F8350000BF002084F83C
:10207000340000BF0320D0E72068006800F00100B2
:102080000028E8D194F85C103F208840A860012027
:1020900084F8350000BF002084F8340000BF00BF82
:1020A000BBE7014691F83500022803D0802048653F
:1020B00001207047052081F835000868006820F08D
:1020C00001000A6810600020F3E7000070B50446C4
:1020D00000F00AF906462546681C10B1044800784D
:1020E000054400BF00F000F9801BA842FAD370BD80
:1020F00024000020F8B502460B46002500240020ED
:102100000021D6E0012606FA01F51E6806EA05045C
:10211000AC4274D11E7906F00306012E04D01E795C
:1021200006F00306022E13D190684F000326BE402E
:10213000B0434F00DE68BE403043906050680126D7
:102140008E40B0431E79C6F300168E403043506077
:102150001E7906F00306032E09D0D0684F0003262F
:10216000BE40B0434F009E68BE403043D0601E79F1
:1021700006F00306022E13D1CF0802F1200656F80E
:1021800027004E07F70E0F26BE40B0434F07FF0E45
:102190001E69BE403043CF0802F1200646F82700F2
:1021A00010684F000326BE40B0431E7906F00306B8
:1021B0004F00BE40304310605E6806F44036002E8B
:1021C00076D000BF002600963C4E366846F4804626
:1021D0003A4F3E603E46366806F48046009600BFA1
:1021E00000BF374E8F0856F827008E07370F0F268F
:1021F000BE40B043334EB24202D1002624E057E045
:10220000314EB24201D101261EE0304EB24201D120
:10221000022619E02E4EB24201D1032614E02D4EC3
:10222000B24201D104260FE02B4EB24201D1052665
:102230000AE02A4EB24201D1062605E0284EB242FB
:1022400001D1072600E008268F073F0FBE4030432C
:102250001B4E8F0846F82700224E3068A0435E6868
:1022600006F4801606B120431E4E3060361D3068DD
:10227000A0435E6806F4001606B12043194E361DD1
:102280003060184E361F3068A0435E6806F4003692
:1022900006B12043134E361F3060361F3068A0430E
:1022A0005E6806F4803606B120430E4E083E30606C
:1022B000491C1029FFF426AFF8BD00004438024045
:1022C00008380140000002400004024000080240BB
:1022D000000C0240001002400014024000180240AE
:1022E000001C0240083C01400148006870470000A3
:1022F0001C0000200348006803490978084401498C
:10230000086070471C0000202400002010B50D4814
:10231000006840F400700B4908600846006840F40B
:10232000806008600846006840F480700860032000
:1023300000F0DCF80F2000F007F800F05FF8002054
:1023400010BD0000003C02402DE9F04188B0044679
:102350000027B84600BF002001902348006840F0E5
:102360002000214908600846006800F02000019024
:1023700000BF00BF02A903A800F08EF9069F1FB995
:1023800000F0B2F9054602E000F0AEF9450017484A
:10239000B5FBF0F0A0F1010815481649086040F2BD
:1023A000E7311448C160C0F80480002101618160F8
:1023B000816100F0BBFC064696B90E4800F02CFD8A
:1023C00006466EB9372000F043F8102C07D20022E1
:1023D0002146372000F04CF80748046000E0012651
:1023E000304608B0BDE8F0814038024040420F005E
:1023F00000140040540200202000002008B500BF57
:10240000002000901148006840F480400F490860A7
:102410000846006800F48040009000BF00BF00BF85
:1024200000200090081F006840F08050091F0860DD
:102430000846006800F08050009000BF00BF0022F6
:102440000F21901E00F014F808BD0000443802402F
:1024500001460846002809DB00F01F0301229A40CC
:1024600043099B0003F1E023C3F8002100BF70473C
:102470002DE9F05F80460D461646002703F050F820
:10248000074639462A46334601F00700C0F1070ADD
:10249000BAF1040F02D94FF0040A01E0C0F1070AB3
:1024A000D14600F1040ABAF1070F02D24FF0000A38
:1024B00001E0A0F1030AD4464FF0010A0AFA09FA32
:1024C000AAF1010A0AEA020A0AFA0CFA4FF0010B11
:1024D0000BFA0CFBABF1010B0BEA030B4AEA0B0402
:1024E0002146404603F024F8BDE8F09F00BF00F00D
:1024F0000702064B19684FF6FF031940044B0B43C4
:1025000043EA0221014B196000BF70470CED00E067
:102510000000FA0570B504460D460CB9012070BDE7
:102520005848006800F00700A84209D255490D70CC
:102530000846006800F00700A84201D00120EEE73D
:10254000207800F0020002281DD1207800F004005D
:10255000042805D14C48006840F4E0504A4908601E
:10256000207800F00800082805D14748006840F4AA
:102570006040454908604448006820F0F000A168C8
:10258000084341490860207800F00100A8B3606862
:10259000012807D13C4808380068C0F34040B8B96A
:1025A0000120BCE76068022802D06068032807D1D8
:1025B000354808380068C0F3406048B90120AEE7EC
:1025C000314808380068C0F3400008B90120A6E788
:1025D0002D48006820F00300616808432A4908601C
:1025E000FFF782FE064609E0FFF77EFE801B41F200
:1025F0008831884202D9032091E707E02248006829
:1026000000F00C006168B0EB810FEDD11D4800684F
:1026100000F00700A84209D91A490D700846006861
:1026200000F00700A84201D0012078E7207800F0F0
:102630000400042807D11448006820F4E050E16841
:10264000084311490860207800F00800082808D1E4
:102650000D48006820F46040216940EAC1000A4941
:10266000086000F061F808490968C1F30311074ADE
:10267000515CC8400649086006480068FFF764FEE0
:1026800000204CE7003C024008380240DC8C000887
:1026900028000020200000200F2202600D4A12684E
:1026A00002F0030242600B4A126802F0F0028260FC
:1026B000084A126802F4E052C260064A126802F444
:1026C0006042D2080261044A126802F007020A60FE
:1026D0007047000008380240003C02400148006892
:1026E000704700002800002000B5FFF7F7FF0449FD
:1026F0000968C1F38221034A515CC84000BD000053
:1027000008380240EC8C000800B5FFF7E7FF0449E9
:102710000968C1F34231034A515CC84000BD000062
:1027200008380240EC8C00082DE9F0470024002511
:102730000026A1462548006800F00C0020B10428BE
:1027400005D008283AD105E0DFF8849039E0DFF8B9
:10275000849036E01D48001F006800F03F041B48CD
:10276000001F006800F4800078B11A481749091F5B
:102770000968C1F38811A0FB0170014622460023BD
:102780003846FDF77FFD05460EE011480F49091F49
:102790000968C1F38811A0FB01700146224600239D
:1027A0003846FDF76FFD05460848001F0068C0F376
:1027B0000140401C4600B5FBF6F902E0DFF810903E
:1027C00000BF00BF4846BDE8F0870000083802405F
:1027D0000024F40000127A00F8B504460CB9012078
:1027E000F8BD207800F00100002874D0F948006896
:1027F00000F00C0004280DD0F648006800F00C0032
:10280000082813D1F348001F006800F48000B0F5D9
:10281000800F0BD1EF4808380068C0F34040002813
:1028200059D06068002856D10120D9E700BF606800
:10283000B0F5803F08D1E7480838006840F48030A0
:10284000E449083908601EE06068B0F5A02F0DD19A
:10285000E0480838006840F48020DE490839086004
:102860000846006840F4803008600CE0D948083819
:10287000006820F48030D7490839086008460068AD
:1028800020F48020086000BF606890B1FFF72CFD45
:10289000054606E0FFF728FD401B642801D9032008
:1028A0009EE7CC4808380068C0F340400028F1D0CB
:1028B00011E0FFF719FD054606E0FFF715FD401B87
:1028C000642801D903208BE7C24808380068C0F3A8
:1028D00040400028F1D1207800F0020002285FD1AA
:1028E000BC48006800F00C0058B1BA48006800F01D
:1028F0000C0008281CD1B748001F006800F48000B5
:10290000B0B9B44808380068C0F3400020B1E068AE
:10291000012801D0012063E7AE480838006820F0A4
:10292000F800216940EAC100AA490839086037E087
:10293000E06800B30120A8490860FFF7D5FC054610
:1029400006E0FFF7D1FC401B022801D9032047E72E
:10295000A04808380068C0F340000028F1D09D4826
:102960000838006820F0F800216940EAC100994960
:102970000839086014E0002097490860FFF7B4FCAC
:10298000054606E0FFF7B0FC401B022801D90320F2
:1029900026E7904808380068C0F340000028F1D1CD
:1029A000207800F0080008282CD16069A8B1012027
:1029B0008A490860FFF798FC054606E0FFF794FC9B
:1029C000401B022801D903200AE782486C300068C6
:1029D000C0F340000028F1D014E000207F490860D7
:1029E000FFF782FC054606E0FFF77EFC401B02284D
:1029F00001D90320F4E677486C300068C0F340004A
:102A00000028F1D1207800F00400042870D10027BC
:102A100070483830006800F0805090B900BF002046
:102A200000906C483830006840F080506949383177
:102A300008600846006800F08050009000BF00BFAA
:102A400001276748006800F48070B0B964480068E6
:102A500040F4807062490860FFF746FC054606E0D6
:102A6000FFF742FC401B022801D90320B8E65C486E
:102A7000006800F480700028F2D000BFA068012830
:102A800008D154486830006840F00100514968316D
:102A900008601DE0A06805280DD14E486830006828
:102AA00040F004004B49683108600846006840F077
:102AB000010008600CE047486830006820F0010021
:102AC0004449683108600846006820F00400086046
:102AD00000BFA068A8B1FFF707FC054609E0FFF7B3
:102AE00003FC401B41F28831884202D9032077E67B
:102AF00026E0384868300068C0F340000028EED077
:102B000013E0FFF7F1FB054608E0FFF7EDFB401B84
:102B100041F28831884201D9032061E62D486830AE
:102B20000068C0F340000028EFD1012F07D12948E9
:102B30003830006820F0805026493831086000BFE6
:102B4000A069002845D02348006800F00C00082840
:102B50005DD0A069022845D100201F490866FFF713
:102B6000C3FB054606E0FFF7BFFB401B022801D967
:102B7000032035E6174808380068C0F34060002895
:102B8000F1D1D4E907010843616A40EA81110122C9
:102B9000A06AC2EB500041EA00412C20005D41EAEE
:102BA00000600C49091F086001200B490866FFF707
:102BB0009BFB054606E0FFF797FB401B022801D967
:102BC00003200DE6034808380068C0F34060002881
:102BD000F1D049E00838024000004742800E4742E9
:102BE00000700040002021490866FFF77DFB054684
:102BF00006E0FFF779FB401B022801D90320EFE52F
:102C00001B480068C0F340600028F2D12CE0A069A6
:102C1000012800D1E4E51648001D0668A0690128D6
:102C200020D006F48001E06981421BD106F03F010B
:102C3000206A814216D147F6C0703040616AB0EB1D
:102C4000811F0FD106F440310122A06AC2EB50006F
:102C5000B1EB004F06D106F070612C20005DB1EBA6
:102C6000006F01D00120BBE50020B9E5000047421C
:102C7000003802407047704730B502460B4600BF2F
:102C800092F83C00012801D1022030BD012082F8D9
:102C90003C0000BF022082F83D00106844681068C4
:102CA000816824F070041868044310684460184D6B
:102CB0001068A8421BD01068B0F1804F17D0154D96
:102CC0001068A84213D0144D1068A8420FD0134DBD
:102CD0001068A8420BD0124D1068A84207D0114DC1
:102CE0001068A84203D0104D1068A84205D121F009
:102CF00080015868014310688160012082F83D001E
:102D000000BF002082F83C0000BF00BFBDE700000C
:102D1000000001400004004000080040000C00409A
:102D200000040140004001400018004010B5044676
:102D30000CB9012010BD94F83D0028B9002084F89A
:102D40003C00204600F026F8022084F83D00211DBA
:102D5000206802F0FFF8012084F8460000BF84F8E4
:102D60003E0001213F2001554020015541200155E1
:102D700000BF00BF012084F84200432001554420D9
:102D800001554520015500BF012084F83D00002079
:102D9000D0E7000038B504461C492068884218D1A5
:102DA00000BF002000901A48006840F01000184949
:102DB00008600846006800F01000009000BF00BFE7
:102DC000002206213620FFF753FB3620FFF740FB99
:102DD0001BE010492068884217D100BF00200090F6
:102DE0000B48006840F48070094908600846006894
:102DF00000F48070009000BF00BF002205212D204C
:102E0000FFF736FB2D20FFF723FB38BD00100040F5
:102E10004038024000200040014691F83D00012862
:102E200001D001207047022081F83D000868C06889
:102E300040F001000B68D8601A4B086898421BD01C
:102E40000868B0F1804F17D0174B0868984213D02C
:102E5000164B086898420FD0154B086898420BD063
:102E6000144B0868984207D0134B0868984203D067
:102E7000124B086898420CD10868806800F007027D
:102E8000062A0CD00868006840F001000B68186042
:102E900005E00868006840F001000B681860002039
:102EA000C0E70000000001400004004000080040AE
:102EB000000C0040000401400040014000180040A8
:102EC000704710B5044620680069C0F34000D8B1CF
:102ED0002068C068C0F34000B0B16FF00200216804
:102EE0000861012020772068806900F0030018B194
:102EF0002046FFF7E5FF05E0204600F0ADF820464C
:102F000000F0ABF80020207720680069C0F3800053
:102F1000D8B12068C068C0F38000B0B16FF0040081
:102F200021680861022020772068806900F44070E1
:102F300018B12046FFF7C4FF05E0204600F08CF8EA
:102F4000204600F08AF80020207720680069C0F34E
:102F5000C000D8B12068C068C0F3C000B0B16FF045
:102F6000080021680861042020772068C06900F00B
:102F7000030018B12046FFF7A3FF05E0204600F04C
:102F80006BF8204600F069F800202077206800697F
:102F9000C0F30010D8B12068C068C0F30010B0B111
:102FA0006FF0100021680861082020772068C06950
:102FB00000F4407018B12046FFF782FF05E020467C
:102FC00000F04AF8204600F048F8002020772068FA
:102FD000006900F0010058B12068C06800F00100ED
:102FE00030B16FF0010021680861204600F036F82A
:102FF00020680069C0F3C01058B12068C068C0F3F1
:10300000C01030B16FF08000216808612046FFF7E2
:1030100031FE20680069C0F3801058B12068C06894
:10302000C0F3801030B16FF0400021680861204685
:1030300000F0CAF820680069C0F3401058B1206859
:10304000C068C0F3401030B16FF020002168086103
:103050002046FFF710FE10BD7047704710B52DEDEC
:10306000028B04464A492068884201D1FFF742F9A1
:10307000484884422AD14848C08E00EE100AB8EE73
:10308000400AB0EE402ADFED451A9FED451ADFED0C
:10309000450A9FED450A03F04DFB444880ED000AC8
:1030A0000068FDF7DDFA41EC180B9FED410B53EC86
:1030B000102BFDF701FB04D29FED3A0A3B4880ED4F
:1030C000000A3A4890ED000A00F0ECFC3A488442CD
:1030D0005BD1FDF79DFC394890ED020A10EE101A05
:1030E0000846FDF7BDFA364A03C2344890ED060A99
:1030F00010EE101A0846FDF7B3FA314AC2E9020190
:103100002E4890ED0B0A10EE101A0846FDF7A8FAAB
:103110002B4AC2E90401294890ED0F0A10EE101A5B
:103120000846FDF79DFA264AC2E90601234890EDBC
:10313000140A10EE101A0846FDF792FA204AC2E966
:1031400008011E4890ED180A10EE101A0846FDF707
:1031500087FA1B4AC2E90A01184890ED1D0A10EED1
:10316000101A0846FDF77CFA154AC2E90C0113480B
:1031700090ED210A10EE101A0846FDF771FA104A78
:10318000C2E90E0101200F490860BDEC028B10BDA1
:1031900000140040C8010020704B0020000096443D
:1031A000000096430AD7233C0000000004000020E2
:1031B0007B14AE47E17A843F80010020444C00201C
:1031C000D84C002008000020704770477047014627
:1031D0000022002391F83D2091F83E3042EA03009E
:1031E000704700002DE9F84F044620680568206804
:1031F000C668206847694FF00009CA4605F00F0904
:10320000B9F1000F0AD105F0200038B106F0200016
:1032100020B1204601F05AFFBDE8F88FB9F1000F48
:103220007CD007F0010018B906F49070002875D022
:1032300005F0010030B106F4807018B1206C40F048
:103240000100206405F0040030B107F0010018B15E
:10325000206C40F00200206405F0020030B107F05D
:10326000010018B1206C40F00400206405F0080053
:1032700048B106F0200010B907F0010018B1206C29
:1032800040F008002064206C002846D005F02000A3
:1032900028B106F0200010B1204601F017FF206889
:1032A0004069C0F3801A206C00F0080010B9BAF130
:1032B000000F2DD0204601F0C3FE2068406900F0C9
:1032C0004000402820D100BF00BF2168143151E8E0
:1032D000001F21F040002168143141E80002002A5B
:1032E000F3D100BFA06B50B17548A16B0865A06B0E
:1032F000FEF7D7FE88B1A06B016D88470DE0204630
:10330000FFF764FF09E009E02046FFF75FFF04E0F4
:103310002046FFF75BFF002020647DE7206B01283B
:1033200076D105F01000002872D006F010000028B9
:10333000FAD000BF0020009020680068009020684C
:103340004068009000BF00BF2068406900F0400066
:1033500040285ED1A06B006840681FFA80F8B8F181
:10336000000F54D0A08D404551DDA4F82E80A06BF5
:10337000C069B0F5807F43D000BF00BF21680C3129
:1033800051E8001F21F4807021680C3141E80002EF
:10339000002AF3D100BF00BF00BF2168143151E8FB
:1033A000001F21F001002168143141E80002002AC9
:1033B000F3D100BF00BF00BF2168143151E8001FE6
:1033C00021F040002168143141E80002002AF3D1C5
:1033D00000BF202084F83E000020206300BF00BF13
:1033E00021680C3151E8001F21F0100021680C31D8
:1033F00041E80002002AF3D100BFA06BFEF7FBFDFD
:10340000A08DE28D801A81B22046FFF7DEFE03E731
:1034100040E0A08DE18D401A1FFA80F8E08DC0B326
:10342000B8F1000F35D000BF00BF21680C3151E862
:10343000001F21F4907021680C3141E80002002A3D
:10344000F3D100BF00BF00BF2168143151E8001F55
:1034500021F001002168143141E80002002AF3D173
:1034600000BF202084F83E000020206300BF00BF82
:1034700021680C3151E8001F21F0100021680C3147
:1034800041E80002002AF3D100BF41462046FFF781
:103490009CFEC1E605F0800030B106F0800018B156
:1034A000204601F0CAFFB7E605F0400030B106F053
:1034B000400018B1204601F0F9FDADE600BFABE6D3
:1034C0002D50000810B504460CB9012010BDA069AC
:1034D00000B100E000BF94F83D0028B9002084F856
:1034E0003C00204600F028F8242084F83D002068A5
:1034F000C06820F400502168C860204601F062FED8
:103500002068006920F490402168086120684069C3
:1035100020F02A00216848612068C06840F400500B
:103520002168C86000202064202084F83D0084F8D1
:103530003E000020CAE7000010B586B00446142102
:1035400001A8FCF7E9FE1F492068884238D100BF76
:10355000002000901C48006840F480201A49086050
:103560000846006800F48020009000BF00BF00BF44
:103570000020009014481038006840F00200124902
:10358000103908600846006800F00200009000BF93
:1035900000BF4FF440600190022002900020039091
:1035A000032004900720059001A90848FEF7A2FD1A
:1035B000002205212720FEF75BFF2720FEF748FFAA
:1035C00006B010BD004800404038024000040240F0
:1035D00070B504460D46164694F83E00202816D1D4
:1035E00005B10EB9012070BD00BF94F83C00012860
:1035F00001D10220F7E7012084F83C0000BF002041
:10360000206332462946204601F0F2FEEBE7022015
:10361000E9E7000070B5054634E01D4800781D4913
:103620001D4A128888541C48008830B908461A4937
:103630000988405C0F2800D028E017480088401C0B
:103640001549088008460088642801DD00200880AC
:10365000104800780F2814D10E48007E88B90E4813
:10366000008819280DD10B4804F0F4F8002403E079
:10367000002008490855641C192CF9DB0020064974
:10368000088003E0054928688842C6D000BF70BDA5
:1036900002000020CC000020000000200048004074
:1036A000704700BFFEE7000030B52DED108B85B0F0
:1036B000B0EE409AF0EE609AB0EE41AAF0EE61AA48
:1036C00004460D4653EC1A2B51EC1A0BFCF7D6FEB0
:1036D00041EC1D0B53EC192B51EC190BFCF7CEFEF2
:1036E00041EC1E0B53EC1D2BFCF721FE41EC1C0B97
:1036F000B0EE4C0AF0EE6C0A02F0F2FAB0EE408A3C
:10370000F0EE608A53EC182B51EC190BFCF728FFF4
:1037100041EC1D0BB0EE4D0AF0EE6D0A02F0CCF854
:10372000B0EE40CAF0EE60CA9FED2D0B53EC102BAB
:1037300051EC1C0BFCF7A2FE41EC1B0B53EC182BBD
:103740009FED290B51EC100BFCF798FE53EC182B56
:10375000CDE9000151EC180BFCF790FE41EC1F0B7A
:103760009FED230B53EC102BFCF7E1FD41EC1E0BFE
:103770009FED210B53EC102BFCF77AFE41EC1D0B57
:103780009DED000B53EC102BFCF7EAFE41EC1C0BFB
:10379000B0EE4C0AF0EE6C0A01F0E2FE8DED020B89
:1037A0009FED0F0B53EC102B9DED020B51EC100B0A
:1037B000FCF764FE41EC180B53EC1B2B51EC180B7F
:1037C000FCF756FEC4E9000153EC1B2B51EC180B1F
:1037D000FCF7ADFDC5E9000105B0BDEC108B30BDB7
:1037E000F8C1631ADCA54C400000000000006940ED
:1037F000000000000088C3400000000000A4DF407B
:1038000010B50F480F4908600320486000210D489B
:103810008160C1604FF4002101614FF440114161AA
:1038200000210176012141768176C1760021017760
:1038300001214177FEF753F908B1FDF715FE10BDE0
:10384000006400403001002010B50E480E490860A9
:103850000620486000210C488160C1604FF440316F
:1038600001614FF48011416100210176417681763A
:10387000C17601774177FEF732F908B1FDF7F4FD23
:1038800010BD0000006800405801002010B5074A34
:103890000021074802F0BEFF06490860064A0021E1
:1038A000064802F0B7FF0649086010BD948C000876
:1038B000F54A000810000020B88C0008014B0008F1
:1038C0001400002008B500BF002000901D480068CB
:1038D00040F080001B4908600846006800F0800046
:1038E000009000BF00BF00BF0020009008460068A5
:1038F00040F0020008600846006800F002000090F6
:1039000000BF00BF00BF002000900846006840F0E4
:10391000010008600846006800F00100009000BF48
:1039200000BF00BF002000900846006840F008007B
:1039300008600846006800F00800009000BF00BF63
:1039400008BD00003038024010B50A480A49086036
:103950005320486000210848816040F2E731C1608F
:10396000002101618161FFF7E1F908B1FDF77CFDFC
:1039700010BD000000200040C80100201CB5002040
:10398000009001900E480F490860532048600021C4
:103990000C48816042F20F71C16000218161FFF724
:1039A000C5F908B1FDF760FD00200090019069465F
:1039B0000448FFF761F908B1FDF756FD1CBD000092
:1039C000001000408001002010B50C480C49086030
:1039D0000C48486000210A4881604FF40051C160E2
:1039E000C91001610421416100218161C161FFF7BA
:1039F00069FD08B1FDF738FD10BD0000004800402A
:103A000010020020A086010000BFFEE700BFFEE715
:103A100010B5224C60606161E260E36184ED000AF0
:103A2000C4ED040A9FED1E4A84ED024A9FED1C4A34
:103A300084ED064AA062A1632263236484ED091A1F
:103A4000C4ED0D1A9FED164A84ED0B4A9FED144A02
:103A500084ED0F4AE064E1656265636684ED122AD5
:103A6000C4ED162A9FED0E4A84ED144A9FED0C4AD0
:103A700084ED184A2067C4F88010A267C4F8883023
:103A800084ED1B3AC4ED1F3A9FED054A84ED1D4AB3
:103A90009FED034A84ED214A10BD0000444C0020F4
:103AA000000000002DED020B84B0FE48406880004D
:103AB000C117039000EB9170801000EE100AB8EE71
:103AC000C00AF848D0ED000AB4EEE00AF1EE10FAB0
:103AD00008D89FEDF50A80ED000A9FEDF30A80ED0E
:103AE000020ADAE0EF484068C117039000EB9170DA
:103AF000801000EE100AB8EEC00AEA48D0ED000AC5
:103B0000B4EEE00AF1EE10FA19DB4068C11702903A
:103B100000EB91708010E349C96891FBF0F000EE72
:103B2000100AB8EEC00A8DED030ADE48D0ED000A97
:103B30009DED030A20EE800A80ED020AADE0D9482F
:103B40004068C117029000EB9170801000EE100ADF
:103B5000B8EEC00AD348D0ED000AB4EEE00AF1EEA8
:103B600010FA53D2406800EB4000C117039000EBFD
:103B70009170801000EE100AB8EEC00AC948D0ED6E
:103B8000000AB4EEE00AF1EE10FA3FDD406800EB07
:103B90004000C117009000EB91708110C14840684F
:103BA000C217019000EB9270A1EBA000BD49C9685B
:103BB0004942BC4AD268891A91FBF0F000EE100A23
:103BC000B8EEC00A8DED030AB64840684000C11740
:103BD000019000EB9170801000EE100AF8EEC00A20
:103BE0009DED030A20EE800AF7EE000A20EE600A3F
:103BF0008DED020AAB4890ED001ADDED030A9DED54
:103C0000020A01EE200A80ED020A46E0A54840685B
:103C100000EB4000C117039000EB9170801000EEA4
:103C2000100AB8EEC00A9F48D0ED000AB4EEE00AD0
:103C3000F1EE10FA31D84068C117019000EB917095
:103C400080109849C96891FBF0F000EE100AB8EEB8
:103C5000C00A8DED030A934840688000C1170190A7
:103C600000EB9170801000EE100AF8EEC00A9DED96
:103C7000030A20EE800AF7EE000A20EE600A8DEDBE
:103C8000020A884890ED001ADDED030A9DED020A54
:103C900001EE200A80ED020A00BF824840698000E0
:103CA000C117039000EB9170801000EE100AB8EE7F
:103CB000C00A7C48D0ED040AB4EEE00AF1EE10FA36
:103CC00008D89FED790A80ED040A9FED770A80ED10
:103CD000060ADAE073484069C117039000EB91705F
:103CE000801000EE100AB8EEC00A6E48D0ED040A4B
:103CF000B4EEE00AF1EE10FA19DB4069C117029048
:103D000000EB917080106749C96991FBF0F000EEFB
:103D1000100AB8EEC00A8DED030A6248D0ED040A1D
:103D20009DED030A20EE800A80ED060AADE05D48B5
:103D30004069C117029000EB9170801000EE100AEC
:103D4000B8EEC00A5748D0ED040AB4EEE00AF1EE2E
:103D500010FA53D2406900EB4000C117039000EB0A
:103D60009170801000EE100AB8EEC00A4D48D0EDF8
:103D7000040AB4EEE00AF1EE10FA3FDD406900EB10
:103D80004000C117009000EB9170811045484069D8
:103D9000C217019000EB9270A1EBA0004149C969E4
:103DA0004942404AD269891A91FBF0F000EE100AAC
:103DB000B8EEC00A8DED030A3A4840694000C117C9
:103DC000019000EB9170801000EE100AF8EEC00A2E
:103DD0009DED030A20EE800AF7EE000A20EE600A4D
:103DE0008DED020A2F4890ED041ADDED030A9DEDDA
:103DF000020A01EE200A80ED060A46E029484069E1
:103E000000EB4000C117039000EB9170801000EEB2
:103E1000100AB8EEC00A2348D0ED040AB4EEE00A56
:103E2000F1EE10FA31D84069C117019000EB9170A2
:103E300080101C49C96991FBF0F000EE100AB8EE41
:103E4000C00A8DED030A174840698000C117019030
:103E500000EB9170801000EE100AF8EEC00A9DEDA4
:103E6000030A20EE800AF7EE000A20EE600A8DEDCC
:103E7000020A0C4890ED041ADDED030A9DED020ADA
:103E800001EE200A80ED060A00BF0648806A800025
:103E9000C117039000EB9170801000EE100AB8EE8D
:103EA000C00A03E0444C002000000000FE48D0EDB2
:103EB000090AB4EEE00AF1EE10FA08D81FED060A7E
:103EC00080ED090A1FED080A80ED0B0ADAE0F648DA
:103ED000806AC117039000EB9170801000EE100A09
:103EE000B8EEC00AF048D0ED090AB4EEE00AF1EEEF
:103EF00010FA19DB806AC117029000EB91708110F3
:103F0000E948006B90FBF1F000EE100AB8EEC00A31
:103F10008DED030AE448D0ED090A9DED030A20EE79
:103F2000800A80ED0B0AADE0DF48806AC11702907D
:103F300000EB9170801000EE100AB8EEC00ADA486B
:103F4000D0ED090AB4EEE00AF1EE10FA53D2806A1D
:103F500000EB4000C117039000EB9170801000EE61
:103F6000100AB8EEC00AD048D0ED090AB4EEE00A53
:103F7000F1EE10FA3FDD806A00EB4000C1170090BF
:103F800000EB91708110C848806AC217019000EB65
:103F90009270A1EBA001C448006B4242C248006B82
:103FA000101A90FBF1F000EE100AB8EEC00A8DED89
:103FB000030ABD48806A4000C117019000EB917070
:103FC000801000EE100AF8EEC00A9DED030A20EE04
:103FD000800AF7EE000A20EE600A8DED020AB24870
:103FE00090ED091ADDED030A9DED020A01EE200AAB
:103FF00080ED0B0A46E0AC48806A00EB4000C11738
:10400000039000EB9170801000EE100AB8EEC00A29
:10401000A548D0ED090AB4EEE00AF1EE10FA31D865
:10402000806AC117019000EB917081109E48006B6F
:1040300090FBF1F000EE100AB8EEC00A8DED030A15
:104040009948806A8000C117019000EB9170801040
:1040500000EE100AF8EEC00A9DED030A20EE800A79
:10406000F7EE000A20EE600A8DED020A8E4890ED10
:10407000091ADDED030A9DED020A01EE200A80ED2A
:104080000B0A00BF8848806B8000C117039000EBCB
:104090009170801000EE100AB8EEC00A8248D0ED90
:1040A0000D0AB4EEE00AF1EE10FA08D81FED820A0C
:1040B00080ED0D0A1FED840A80ED0F0ADAE07A48E0
:1040C000806BC117039000EB9170801000EE100A16
:1040D000B8EEC00A7448D0ED0D0AB4EEE00AF1EE75
:1040E00010FA19DB806BC117029000EB9170811000
:1040F0006D48006C90FBF1F000EE100AB8EEC00ABB
:104100008DED030A6848D0ED0D0A9DED030A20EEFF
:10411000800A80ED0F0AADE06348806BC117029002
:1041200000EB9170801000EE100AB8EEC00A5E48F5
:10413000D0ED0D0AB4EEE00AF1EE10FA53D2806B26
:1041400000EB4000C117039000EB9170801000EE6F
:10415000100AB8EEC00A5448D0ED0D0AB4EEE00AD9
:10416000F1EE10FA3FDD806B00EB4000C1170090CC
:1041700000EB917081104C48806BC217019000EBEE
:104180009270A1EBA0014848006C42424648006C86
:10419000101A90FBF1F000EE100AB8EEC00A8DED97
:1041A000030A4148806B4000C117019000EB9170F9
:1041B000801000EE100AF8EEC00A9DED030A20EE12
:1041C000800AF7EE000A20EE600A8DED020A3648FA
:1041D00090ED0D1ADDED030A9DED020A01EE200AB5
:1041E00080ED0F0A46E03048806B00EB4000C117BD
:1041F000039000EB9170801000EE100AB8EEC00A38
:104200002948D0ED0D0AB4EEE00AF1EE10FA31D8EB
:10421000806BC117019000EB917081102248006CF7
:1042200090FBF1F000EE100AB8EEC00A8DED030A23
:104230001D48806B8000C117019000EB91708010C9
:1042400000EE100AF8EEC00A9DED030A20EE800A87
:10425000F7EE000A20EE600A8DED020A124890ED9A
:104260000D1ADDED030A9DED020A01EE200A80ED34
:104270000F0A00BF0C48C06C8000C117039000EB10
:104280009170801000EE100AB8EEC00A0648D0ED1A
:10429000120AB4EEE00AF1EE10FA0ED89FED030A0E
:1042A00080ED120A04E00000444C002000000000F1
:1042B0001FED020A80ED140ADAE0F848C06CC1175D
:1042C000039000EB9170801000EE100AB8EEC00A67
:1042D000F248D0ED120AB4EEE00AF1EE10FA19DB62
:1042E000C06CC117029000EB91708110EB48406DDB
:1042F00090FBF1F000EE100AB8EEC00A8DED030A53
:10430000E648D0ED120A9DED030A20EE800A80ED0A
:10431000140AADE0E148C06CC117029000EB917047
:10432000801000EE100AB8EEC00ADC48D0ED120A88
:10433000B4EEE00AF1EE10FA53D2C06C00EB40008C
:10434000C117039000EB9170801000EE100AB8EED8
:10435000C00AD248D0ED120AB4EEE00AF1EE10FA2B
:104360003FDDC06C00EB4000C117009000EB917086
:104370008110CA48C06CC217019000EB9270A1EB8B
:10438000A001C648406D4242C448406D101A90FBDF
:10439000F1F000EE100AB8EEC00A8DED030ABF4836
:1043A000C06C4000C117019000EB9170801000EECE
:1043B000100AF8EEC00A9DED030A60EE800AB7EE1F
:1043C000000A20EEC00A8DED020AB44890ED121AE0
:1043D000DDED030A9DED020A01EE200A80ED140ACC
:1043E00046E0AE48C06C00EB4000C117039000EB04
:1043F0009170801000EE100AB8EEC00AA748D0ED08
:10440000120AB4EEE00AF1EE10FA31D8C06CC1170E
:10441000019000EB91708110A048406D90FBF1F08D
:1044200000EE100AB8EEC00A8DED030A9B48C06C7E
:104430008000C117019000EB9170801000EE100A0F
:10444000F8EEC00A9DED030A20EE800AF7EE000A9E
:1044500020EE600A8DED020A904890ED121ADDED13
:10446000030A9DED020A01EE200A80ED140A00BF46
:104470008A48C06D8000C117039000EB91708010D6
:1044800000EE100AB8EEC00A8448D0ED160AB4EE69
:10449000E00AF1EE10FA08D81FED7C0A80ED160A4A
:1044A0001FED7E0A80ED180ADAE07C48C06DC11766
:1044B000039000EB9170801000EE100AB8EEC00A75
:1044C0007648D0ED160AB4EEE00AF1EE10FA19DBE8
:1044D000C06DC117029000EB917081106F48406E63
:1044E00090FBF1F000EE100AB8EEC00A8DED030A61
:1044F0006A48D0ED160A9DED030A20EE800A80ED91
:10450000180AADE06548C06DC117029000EB9170CC
:10451000801000EE100AB8EEC00A6048D0ED160A0E
:10452000B4EEE00AF1EE10FA53D2C06D00EB400099
:10453000C117039000EB9170801000EE100AB8EEE6
:10454000C00A5648D0ED160AB4EEE00AF1EE10FAB1
:104550003FDDC06D00EB4000C117009000EB917093
:1045600081104E48C06DC217019000EB9270A1EB14
:10457000A0014A48406E42424848406E101A90FBE3
:10458000F1F000EE100AB8EEC00A8DED030A4348C0
:10459000C06D4000C117019000EB9170801000EEDB
:1045A000100AF8EEC00A9DED030A20EE800AF7EE2D
:1045B000000A20EE600A8DED020A384890ED161AC6
:1045C000DDED030A9DED020A01EE200A80ED180AD6
:1045D00046E03248C06D00EB4000C117039000EB8D
:1045E0009170801000EE100AB8EEC00A2B48D0ED92
:1045F000160AB4EEE00AF1EE10FA31D8C06DC11718
:10460000019000EB917081102448406E90FBF1F016
:1046100000EE100AB8EEC00A8DED030A1F48C06D07
:104620008000C117019000EB9170801000EE100A1D
:10463000F8EEC00A9DED030A20EE800AF7EE000AAC
:1046400020EE600A8DED020A144890ED161ADDED99
:10465000030A9DED020A01EE200A80ED180A00BF50
:104660000E48006F8000C117039000EB917080101E
:1046700000EE100AB8EEC00A0848D0ED1B0AB4EEEE
:10468000E00AF1EE10FA0BD81FEDF80A80ED1B0AD4
:104690001FEDFA0A80ED1D0ADDE00000444C002009
:1046A000FE48006FC117039000EB9170801000EE80
:1046B000100AB8EEC00AF948D0ED1B0AB4EEE00AC1
:1046C000F1EE10FA19DB006FC117029000EB917048
:1046D0008110F248806F90FBF1F000EE100AB8EE06
:1046E000C00A8DED030AED48D0ED1B0A9DED030ACB
:1046F00020EE800A80ED1D0AADE0E848006FC1178A
:10470000029000EB9170801000EE100AB8EEC00A23
:10471000E248D0ED1B0AB4EEE00AF1EE10FA53D2F3
:10472000006F00EB4000C117039000EB9170801008
:1047300000EE100AB8EEC00AD848D0ED1B0AB4EE5D
:10474000E00AF1EE10FA3FDD006F00EB4000C11708
:10475000009000EB91708110D048006FC21701905B
:1047600000EB9270A1EBA001CC48806F4242CB4895
:10477000806F101A90FBF1F000EE100AB8EEC00A3C
:104780008DED030AC548006F4000C117019000EB92
:104790009170801000EE100AF8EEC00A9DED030A39
:1047A00020EE800AF7EE000A20EE600A8DED020A84
:1047B000BA4890ED1B1ADDED030A9DED020A01EEE9
:1047C000200A80ED1D0A46E0B448006F00EB40006F
:1047D000C117039000EB9170801000EE100AB8EE44
:1047E000C00AAE48D0ED1B0AB4EEE00AF1EE10FAB2
:1047F00031D8006FC117019000EB91708110A7486C
:10480000806F90FBF1F000EE100AB8EEC00A8DED5B
:10481000030AA248006F8000C117019000EB91705D
:10482000801000EE100AF8EEC00A9DED030A20EE9B
:10483000800AF7EE000A20EE600A8DED020A974822
:1048400090ED1B1ADDED030A9DED020A01EE200A30
:1048500080ED1D0A00BF9148D0F880008000C1178C
:10486000039000EB9170801000EE100AB8EEC00AC1
:104870008A48D0ED1F0AB4EEE00AF1EE10FA08D82B
:104880009FED870A80ED1F0A9FED850A80ED210AC2
:10489000E8E08248D0F88000C117039000EB9170E7
:1048A000801000EE100AB8EEC00A7C48D0ED1F0A56
:1048B000B4EEE00AF1EE10FA1BDBD0F88000C1176D
:1048C000029000EB917081107448D0F8880090FB42
:1048D000F1F000EE100AB8EEC00A8DED030A6F4841
:1048E000D0ED1F0A9DED030A20EE800A80ED210A1B
:1048F000B8E06A48D0F88000C117029000EB9170D0
:10490000801000EE100AB8EEC00A6448D0ED1F0A0D
:10491000B4EEE00AF1EE10FA59D2D0F8800000EBC4
:104920004000C117039000EB9170801000EE100A58
:10493000B8EEC00A5948D0ED1F0AB4EEE00AF1EE15
:1049400010FA44DDD0F8800000EB4000C117009061
:1049500000EB917081105148D0F88000C21701908F
:1049600000EB9270A1EBA0014C48D0F888004242C5
:104970004A48D0F88800101A90FBF1F000EE100AB7
:10498000B8EEC00A8DED030A4448D0F8800040001C
:10499000C117019000EB9170801000EE100AF8EE44
:1049A000C00A9DED030A20EE800AF7EE000A20EE11
:1049B000600A8DED020A394890ED1F1ADDED030AF9
:1049C0009DED020A01EE200A80ED210A4AE03348FB
:1049D000D0F8800000EB4000C117039000EB91700D
:1049E000801000EE100AB8EEC00A2C48D0ED1F0A65
:1049F000B4EEE00AF1EE10FA34D8D0F88000C11716
:104A0000019000EB917081102448D0F8880090FB51
:104A1000F1F000EE100AB8EEC00A8DED030A1F484F
:104A2000D0F880008000C117019000EB91708010D9
:104A300000EE100AF8EEC00A9DED030A20EE800A8F
:104A4000F7EE000A20EE600A8DED020A134890EDA1
:104A50001F1ADDED030A9DED020A01EE200A80ED2A
:104A6000210A00BF0D48D0ED000A9DED040A30EE8A
:104A7000800A80ED000AD0ED040A9DED040A30EEB4
:104A8000800A80ED040AD0ED090A9DED040A30EE9B
:104A9000800A80ED090AD0ED0D0A03E0444C0020A5
:104AA000000000009DED040A30EE800A80ED0D0A42
:104AB000D0ED120A9DED040A30EE800A80ED120A54
:104AC000D0ED160A9DED040A30EE800A80ED160A3C
:104AD000D0ED1B0A9DED040A30EE800A80ED1B0A22
:104AE000D0ED1F0A9DED040A30EE800A80ED1F0A0A
:104AF00006B0704700BF0A2001F036FEFBE7000059
:104B00002DED028B92B000BFC848006801287DD10E
:104B10002022C74908A8FBF7E6FBC54890F820000B
:104B20008DF84000C248406A1190C24890ED021BC7
:104B3000B0EE410AF0EE610A51EC100BFBF7D4FD28
:104B400008EE100A1C220BA96846FBF7CCFB0720D5
:104B50009FEDB92ADFEDB91AB1EE0E1ADFEDB60AF4
:104B6000B0EE480A08A90EC9FCF726F9012001F0A9
:104B7000FBFD2022AE4908A8FBF7B5FBAC4890F836
:104B800020008DF84000AA48406A1190A94890ED95
:104B9000001BB0EE410AF0EE610A51EC100BFBF77E
:104BA000A3FD08EE100A1C220BA96846FBF79BFB2D
:104BB00005209FEDA12ADFEDA11AB1EE0E1ADFED5F
:104BC0009E0AB0EE480A08A90EC9FCF7F5F80120C4
:104BD00001F0CAFD2022964908A8FBF784FB9448FF
:104BE00090F820008DF840009148406A119091485B
:104BF00090ED061BB0EE410AF0EE610A51EC100B8D
:104C0000FBF772FD08EE100A1C2200E00AE10BA976
:104C10006846FBF768FB06209FED872ADFED871AC1
:104C2000B1EE0E1ADFED840AB0EE480A08A90EC9EB
:104C3000FCF7C2F8012001F097FD2022804908A866
:104C4000FBF751FB7E4890F820008DF840007C482F
:104C5000406A1190774890ED041BB0EE410AF0EEE7
:104C6000610A51EC100BFBF73FFD08EE100A1C2205
:104C70000BA96846FBF737FB04209FED6F2ADFED99
:104C80006F1AB1EE0E1ADFED6C0AB0EE480A08A9F1
:104C90000EC9FCF791F8012001F066FD2022684959
:104CA00008A8FBF720FB664890F820008DF840002C
:104CB0006348406A11905F4890ED0E1BB0EE410AC8
:104CC000F0EE610A51EC100BFBF70EFD08EE100A36
:104CD0001C220BA96846FBF706FB01209FED562A14
:104CE000DFED561AB1EE0E1ADFED530AB0EE480AA8
:104CF00008A90EC9FCF760F8012001F035FD20225B
:104D00004F4908A8FBF7EFFA4D4890F820008DF8BE
:104D100040004B48406A1190464890ED0C1BB0EEA5
:104D2000410AF0EE610A51EC100BFBF7DDFC08EED6
:104D3000100A1C220BA96846FBF7D5FA02209FED4A
:104D40003E2ADFED3E1AB1EE0E1ADFED3B0AB0EE61
:104D5000480A08A90EC9FCF72FF8012001F004FD4C
:104D60002022334908A8FBF7BEFA314890F820000A
:104D70008DF840002E48406A11902E4890ED0A1B95
:104D8000B0EE410AF0EE610A51EC100BFBF7ACFCFF
:104D900008EE100A1C220BA96846FBF7A4FA0820AB
:104DA0009FED252ADFED251AB1EE0E1ADFED220A5E
:104DB000B0EE480A08A90EC9FBF7FEFF012001F07A
:104DC000D3FC20221E4908A8FBF78DFA1C4890F856
:104DD00020008DF840001A48406A1190154890ED67
:104DE000081BB0EE410AF0EE610A51EC100BFBF724
:104DF0007BFC08EE100A1C220BA96846FBF773FA2D
:104E000003209FED0D2ADFED0D1AB1EE0E1ADFED36
:104E10000A0AB0EE480A08A90EC9FBF7CDFF012027
:104E200001F0A2FC052001F09FFC6DE608000020C7
:104E300058010020184D002000000000CDCC4C3E51
:104E40003001002010B54FF0E020006903F0CCFCE9
:104E5000012801D003F016F910BD000000B593B091
:104E6000302107A8FBF758FA142102A8FBF754FADF
:104E700000BF002001902448006840F08050224983
:104E800008600846006800F08050019000BF00BF35
:104E900000BF002001901D48006840F480401B497D
:104EA00008600846006800F48040019000BF00BF21
:104EB000012007900004089002200D9041050E91FA
:104EC00004210F91A8211091022111910421129126
:104ED00007A8FDF781FC08B1FCF7C6FA0F20029085
:104EE00002200390002004904FF4A05005904FF44E
:104EF00080500690052102A8FDF70CFB08B1FCF7D5
:104F0000B3FA13B000BD000040380240007000400A
:104F10000348006840F470000149086070470000D1
:104F200088ED00E010B50248FDF7CBFF10BD000092
:104F30008001002010B50248FDF7C3FF10BD00003E
:104F40005402002010B50248FDF7BBFF10BD000061
:104F5000C801002010B50268294B98420ED0B0F16C
:104F6000804F0BD0274B984208D0274B984205D052
:104F7000264B984202D0264B984203D122F0700271
:104F80004B681A431E4B984220D0B0F1804F1DD081
:104F90001C4B98421AD01C4B984217D01B4B98427E
:104FA00014D01B4B984211D01A4B98420ED01A4B7A
:104FB00098420BD0194B984208D0194B984205D013
:104FC000184B984202D0184B984203D122F44072F9
:104FD000CB681A4322F080034C6943EA0402026062
:104FE0008B68C3620B688362054B984202D0084B02
:104FF000984201D10B6903630123436110BD000096
:10500000000001400004004000080040000C004087
:1050100000040140004001400044014000480140BC
:1050200000180040001C00400020004070B50546FC
:10503000AC6B0020E085E0842046FEF7C7F870BD29
:1050400000BF00BF02680C3252E8002F22F49071BA
:1050500002680C3242E80013002BF3D100BF00BFFE
:1050600000BF0268143252E8002F22F001010268EA
:10507000143242E80013002BF3D100BF016B012969
:105080000ED100BF00BF02680C3252E8002F22F0A0
:10509000100102680C3242E80013002BF3D100BF6C
:1050A000202180F83E1000210163704710B50446AE
:1050B0002068C06820F040002168C860202084F883
:1050C0003D002046FEF7ECFA002010BDF8B504467E
:1050D00094F83E00222873D1A068B0F5805F0CD10F
:1050E000206950B90025A66A20684068C0F308000E
:1050F0003080A06A801CA06215E0A56A0026A06826
:10510000B0F5805F03D0A06828B9206918B920687D
:105110004068287004E02068406800F07F00287034
:10512000A06A401CA062E08D401E80B2E08500288D
:1051300044D12068C06820F020002168C860206841
:10514000C06820F480702168C8602068406920F041
:10515000010021684861202084F83E00206B01286E
:1051600026D10020206300BF00BF21680C3151E828
:10517000001F21F0100021680C3141E80002002AD4
:10518000F3D100BF2068006800F0100010280AD199
:1051900000BF0020009020680068009020684068F0
:1051A000009000BF00BFA18D2046FEF70EF802E080
:1051B0002046FEF72FFA0020F8BD01E00020FBE7B3
:1051C0000220F9E72DE9F84F04462068006920F431
:1051D0004050E1680843216808612169A0680843DC
:1051E00061690843E169084300902068C06849F29A
:1051F0000C618843009908432168C86020684069B1
:1052000020F44070A169084321684861764920680C
:10521000884203D075492068884203D1FDF774FAAB
:10522000814602E0FDF760FA8146E069B0F5004F83
:105230006CD102206168A0FB015003461920A9FB34
:10524000007001462A463846FBF71CF86421B0FB83
:10525000F1F04FEA001A02206168A0FB01510B46F1
:105260001920A9FB00712A463846FBF70BF8834644
:1052700002206168A0FB015003461920A9FB0071C0
:105280002A463846FAF7FEFF6421B0FBF1F000EB46
:10529000C00101EB0010ABEB8000322101EBC0003C
:1052A0006421B0FBF1F000F0F8000AEB400A0220A4
:1052B0006168A0FB015003461920A9FB007001465C
:1052C0002A463846FAF7DEFF834602206168A0FBD3
:1052D000015003461920A9FB00712A463846FAF707
:1052E000D1FF6421B0FBF1F000EBC00101EB001035
:1052F000ABEB8000322101EBC0006421B0FBF1F088
:1053000000F007005044216888606AE0042061686A
:10531000A0FB015003461920A9FB007001462A4654
:105320003846FAF7AFFF824604206168A0FB0150BF
:1053300003461920A9FB007001462A463846FAF7B1
:10534000A1FF6421B0FBF1F000EBC00101EB001004
:10535000AAEB8000322101EB00106421B0FBF1F0D8
:1053600000F0F00A04206168A0FB017003461920D8
:10537000A9FB00513A462846FAF784FF6421B0FBA6
:10538000F1F00AEB001A04206168A0FB01510B4602
:105390001920A9FB00712A463846FAF773FF8346A5
:1053A00004206168A0FB015003461920A9FB00708E
:1053B00001462A463846FAF765FF6421B0FBF1F052
:1053C00000EBC00101EB0010ABEB8000322101EBE0
:1053D00000106421B0FBF1F000F00F005044216890
:1053E0008860BDE8F88F0000001001400014014003
:1053F00010B5034699629A85DA8500201864222048
:1054000083F83E0000BF002083F83C0000BF18690D
:1054100028B11868C06840F480701C68E0601868A3
:10542000406940F001001C6860611868C06840F085
:1054300020001C68E060002010BD014691F83D008E
:10544000212828D18868B0F5805F0BD1086948B958
:105450000A6A1088C0F308000B685860086A801C4C
:10546000086205E00B6A581C086218780B685860DF
:10547000C88C401E80B2C88458B90868C06820F043
:1054800080000B68D8600868C06840F040000B6876
:10549000D860002070470220FCE7000070B50024AF
:1054A0000F4D1048FDF79EFE00BF03E0641CAC42A8
:1054B00000D904E00B48FDF78AFE2028F6D100BF92
:1054C000002403E0641CAC4200D906E00122064936
:1054D0000448FEF77DF80028F4D100BF70BD00003D
:1054E000FFFF0100100200200200002000BFFEE7C5
:1054F00003B401984100009850EAC12018BF04206D
:105500004A0D18BF40F0010040F2FF72B2EB515F4C
:1055100008BF40F00200012808BF052002B0704714
:1055200002480068C0F30220704700000CED00E064
:1055300010B5002804DB0A07130E054A135406E0D1
:105540000A07140E034A00F00F031B1FD45410BDAA
:1055500000E400E018ED00E0EFF305807047000084
:1055600010B5B94A2DED020B2DED0C8B82B00F99C1
:1055700021F000409FEDB6CB90422CDBA0F14053D0
:105580000E9AA3F17F631A430FD0B349884202DC1D
:1055900016D10E98A0B19DED0E0B02B0BDEC0C8B98
:1055A00002B0BDE8104000F0C3BF0029C1BF9FEDAD
:1055B000AC0B02B0BDEC0C8B02B0C8BF10BD16E046
:1055C000012000F0F1FF02B0BDEC0C8B02B0BDE891
:1055D000104000F0B9BFA44A9FEDA59B9FEDA6AB7C
:1055E00090425EDAA6499FEDA8CB814208DBB0EE7F
:1055F0004C0AF0EE6C0A02B0BDEC0C8B02B010BD90
:105600009DED0E0B53EC102B51EC100BFAF736FFFF
:1056100041EC180B9E480621B0EE480AF0EE680AED
:10562000784400F071FE53EC182B51EC100BFAF794
:1056300025FF41EC1B0B9748B0EE480AF0EE680AD4
:105640000421784400F060FE53EC182B51EC100B51
:10565000FAF714FF53EC192BFAF769FE41EC100B23
:1056600051EC1B0B53EC102BFAF77AFF41EC100BAB
:1056700053EC102B9DED0E0B51EC100BFAF7FEFEC8
:1056800053EC1A2BFAF7F7FE9DED0E1B53EC112B82
:10569000FAF7F1FE53EC1C2BFAF7EDFE41EC100B80
:1056A000A9E79FED7D8B9FED7EBB9DED0E0B002945
:1056B00053EC192B51EC100B52DAFAF738FE53EC7D
:1056C000182BFAF7DBFE41EC180B77480621B0EEF9
:1056D000480AF0EE680A784400F016FE53EC182BE6
:1056E00051EC100BFAF7CAFE41EC1D0B6F48B0EEFF
:1056F000480AF0EE680A0421784400F005FE53ECF5
:10570000182B51EC100BFAF7B9FE53EC192BFAF7E2
:105710000EFE41EC190B51EC180B01F0A5FE41EC0B
:10572000180B53EC192B51EC1D0BFAF719FF53EC26
:10573000182BFAF7A3FE53EC1A2BFAF799FE41EC5B
:10574000100B51EC180B53EC102BFAF7F0FD53EC47
:105750001B2BFAF793FE53EC1C2BFAF78CFE6DE033
:10576000FAF789FE53EC182BFAF788FE41EC180B78
:1057700001F07AFE41EC1A0B00208DED00AB009099
:105780009DED000B51EC1A0B53EC102BFAF7CFFDEB
:105790009DED000B41EC1C0B53EC102B51EC100B4E
:1057A000FAF76CFE53EC182BFAF765FE53EC1C2B42
:1057B000FAF7D6FE41EC1C0B3D48B0EE480AF0EE7D
:1057C000680A0621784400F09FFD53EC182B51EC39
:1057D000100BFAF753FE41EC1D0B3648B0EE480AA9
:1057E000F0EE680A0421784400F08EFD53EC182B8B
:1057F00051EC100BFAF742FE53EC192BFAF797FD18
:1058000041EC100B51EC1D0B53EC102BFAF7A8FEDA
:1058100053EC1A2BFAF732FE53EC1C2BFAF787FDE8
:1058200041EC100B53EC102B9DED000B51EC100BC9
:10583000FAF77DFD53EC1B2BFAF720FE41EC100B21
:10584000D9E60000000000000000F03F000000006A
:10585000182D4454FB2109400000F07F0000000097
:1058600000000000000000000000E03F0000000019
:10587000000000000000F03F075C143326A6913CB6
:105880000000603C00000000182D4454FB21F93F4B
:10589000D4360000E2360000000000000000E03FC7
:1058A00000000000000000401E3600002C36000002
:1058B000303500003E35000070B5C1482DED020BBB
:1058C0002DED0E8B82B0119D25F000449FEDBEDBC7
:1058D0009FEDBFEB84423EDBA4F140511098A1F153
:1058E0007F6108430FD0BC48844202DC28D1109865
:1058F00030B39DED100B02B0BDEC0E8B02B0BDE8D5
:10590000704000F015BE9DED100B53EC1D2B51ECBB
:10591000100BFAF7B3FD9DED100B41EC180B53EC97
:105920001E2B51EC100BFAF7A9FD53EC182BFAF7CC
:10593000FEFC41EC100B02B0BDEC0E8B02B070BD52
:10594000012000F031FE02B0BDEC0E8B02B0BDE8CC
:10595000704000F0F9BDA1489FEDA18B844256DA5A
:105960009DED100BB4F1795F0ADA51EC100BFFF7E3
:10597000BFFD042808BF00F0F7FD9DED100BDAE72E
:1059800053EC102B51EC100BFAF778FD41EC190B8E
:1059900095480621B0EE490AF0EE690A784400F015
:1059A000B3FC53EC192B51EC100BFAF767FD41ECEB
:1059B0001A0B8E48B0EE490AF0EE690A04217844C9
:1059C00000F0A2FC53EC192B51EC100BFAF756FD2A
:1059D00053EC182BFAF7ABFC41EC100B51EC1A0B03
:1059E00053EC102BFAF7BCFDCDE900019DED000B47
:1059F00053EC102B9DED100B51EC100BFAF73EFD04
:105A00009DED101B53EC112BFAF791FCD2E09DEDAC
:105A1000100B51EC100B00F00BFE53EC182BFAF7A7
:105A20002AFD9FED730BCDE9000153EC102B9DED8A
:105A3000000B51EC100BFAF721FD41EC190B6E48ED
:105A40000621B0EE490AF0EE690A784400F05CFCE9
:105A500053EC192B51EC100BFAF710FD41EC1B0B1A
:105A60006648B0EE490AF0EE690A0421784400F075
:105A70004BFC53EC192B51EC100BFAF7FFFC53ECD9
:105A8000182BFAF754FC41EC1C0B51EC190B01F0EC
:105A9000EBFC41EC180B5A489FED5BABA04222DCBB
:105AA00053EC1C2B51EC1B0BFAF75AFDCDE900010E
:105AB0009DED000B51EC180B53EC102BFAF7DEFCAC
:105AC00053EC182BFAF733FC53EC1A2BFAF7D6FCED
:105AD00053EC1D2BFAF7CCFC53EC1E2BFAF7CBFC46
